:1000000056C06EC0BDC06CC08FC06AC069C068C039
:1000100067C066C066C064C063C062C061C000C122
:10002000FFC0FEC0FDC0FEC0FDC0FCC0FBC0FCC0E8
:10003000FBC0FAC0F9C0FAC0F9C0F8C0F7C0F8C0F8
:10004000F7C0F6C0F5C008C10AC10CC10EC101C19C
:1000500006C108C10AC1FDC0FFC004C106C1F9C084
:10006000FBC0FDC002C1F5C0F7C0F9C0FBC098C21B
:1000700099C29AC29BC29CC29DC29EC29FC2A0C28C
:10008000A1C2A2C2A3C2A4C2A5C2A6C2A7C2ADC237
:10009000ACC2ABC2AAC2A9C2A8C2A7C2A6C2B1C200
:1000A000B8C2B8C2BAC2BCC2BEC2C0C2C4C21124A5
:1000B0001FBECFEDCDBF10E0A0E6B0E0E2EFF6E06E
:1000C00002C005900D92A236B107D9F710E0A2E662
:1000D000B0E001C01D92AB37B107E1F7B0D207C362
:1000E0008FCF1F920F920FB60F9211242F933F9331
:1000F0004F935F936F937F938F939F93AF93BF9330
:10010000EF93FF9382D0FF91EF91BF91AF919F91B9
:100110008F917F916F915F914F913F912F910F90B0
:100120000FBE0F901F9018951F920F920FB60F924F
:1001300011242F933F934F935F936F937F938F93EC
:100140009F93AF93BF93EF93FF938091640090913F
:100150006500019690936500809364004DD0FF91F7
:10016000EF91BF91AF919F918F917F916F915F912F
:100170004F913F912F910F900FBE0F901F901895A8
:100180001F920F920FB60F9211240F900FBE0F9077
:100190001F90189580916200811106C0B5992AC000
:1001A0001092630081E013C0813051F480916300AC
:1001B000853000F1B5991EC01092630082E007C03F
:1001C000823041F4B59B16C01092630083E08093A7
:1001D000620010C0833061F480916300853050F07C
:1001E000B59B08C0109263001092620081E00895F0
:1001F0001092620080E00895809163008F5F809389
:100200006300089580916200089517BA18BAE091CA
:100210007A00F0E0E431F10560F4E15FFF4F09940A
:10022000BA9A07C0BB9A05C0BC9A03C0B99A01C06C
:10023000B89AE0917A00AE2FB0E0AA59BF4F8C91E6
:100240008130B1F4F0E0E431F10590F4ED5DFF4F61
:100250000994BA9A84E00BC0BB9A88E008C0BC9AA3
:1002600080E105C0B99A82E002C0B89A81E088BBFB
:1002700080917A008F5F843118F480937A0008951A
:1002800010927A00089519BE80E285BB8BBF85B7B6
:10029000877E806185BF85B7806285BF85B7982FCF
:1002A00094688B7F8068F89495BF85BF7894889513
:1002B000F89485B78F7D85BF84E189BF1BBE789494
:1002C000089520E030E0F901EA59FF4F80832F5F65
:1002D0003F4F24313105B9F70895F89480E0F1DFFC
:1002E000109265001092640078940895F89481E06B
:1002F000E8DF109265001092640078940895F894F5
:1003000040916400509165009C01220F331F4217F9
:10031000530728F010926500109264000BC02091E2
:100320006400309165002817390710F081E001C0A2
:1003300080E0C7DF7894089580916000909161001B
:100340009C013695279536952795AC01E3E05695A7
:100350004795EA95E1F72427352728273927AC0167
:10036000F5E056954795FA95E1F724273527332789
:1003700026953795222796958795282B392B3093EC
:10038000610020936000C9010895FF920F931F93AD
:10039000CF93DF938B01F894209164003091650036
:1003A0002817390710F478941AC01092650010923B
:1003B0006400C0E0D0E0FF24F394BEDF0817190703
:1003C00048F4FE01EA59FF4F8081813011F4108218
:1003D00001C0F0822196C431D10579F7E4CFDF91D5
:1003E000CF911F910F91FF900895CF93DF93EC0170
:1003F000F89480E066DF2091640030916500CE01C2
:10040000880F991F2817390728F01092650010925D
:1004100064002AC080916400909165008C179D074C
:1004200090F081E0809367008093690080936B0077
:1004300080936D0080936F008093710080937300B0
:100440008093750011C081E08093660080936800FE
:1004500080936A0080936C0080936E00809370009C
:1004600080937200809374007894DF91CF91089507
:10047000CF93DF93EC01F89480E023DF20916400B8
:1004800030916500CE01880F991F880F991F28179A
:10049000390728F0109265001092640043C0209143
:1004A000640030916500CE0163E070E0FAD0281757
:1004B000390750F081E08093690080936D0080934C
:1004C0007100809375002EC020916400309165000A
:1004D000CE01880F991F2817390750F081E08093CB
:1004E000680080936C0080937000809374001AC041
:1004F00080916400909165008C179D0750F081E019
:100500008093670080936B0080936F0080937300EB
:1005100009C081E08093660080936A0080936E003A
:10052000809372007894DF91CF910895CF93DF93F9
:10053000EC01F89480E0C5DE809164009091650044
:10054000BE01C1D06831710528F01092650010928B
:10055000640003C06031710508F060E180E090E064
:1005600021E005C0FC01EA59FF4F20830196861760
:10057000C8F37894DF91CF910895CF93DF93EC0186
:10058000F89481E09EDE8091640090916500BE0148
:100590009AD06831710528F5FB01E95CFF4F099499
:1005A00010927500109274001092730010927200F5
:1005B000109271001092700010926F0010926E00F5
:1005C00010926D0010926C0010926B0010926A00F5
:1005D00010926900109268001092670010926600F5
:1005E00004C010926500109264007894DF91CF915E
:1005F0000895E82FF0E0E830F10500F5E15BFF4FEA
:1006000009946BDE88B3807E88BBFCDD811116C047
:100610003ACE6CCE8EEE92E072CE8EEE92E0E5CEC9
:1006200084EF91E083CF84EF91E022CF60E47CE916
:1006300084EF91E0AACE84EF91E09FCF08958FE1FF
:1006400087BB18BA14BA479A379882E08ABD83E00C
:1006500083BF88E489BD12BE87EC80BF1CBC8DE7D8
:100660008DBD1FBC84E189BF789480E02ADEC0E0A4
:10067000D0E011E02091640030916500C217D307EB
:10068000C9F3812FB6DFC0916400D091650082DD8F
:10069000882381F31F5F1770109265001092640029
:1006A000E9CF5527002480FF02C0060E571F660FB2
:1006B000771F6115710521F096958795009799F739
:1006C000952F802D0895AA1BBB1B51E107C0AA1FBF
:1006D000BB1FA617B70710F0A61BB70B881F991FE3
:1006E0005A95A9F780959095BC01CD010895F8948D
:0206F000FFCF3A
:0206F2003412C0
:00000001FF
