:1000000016C023C09AC021C07CC01FC01EC01DC026
:100010001CC01BC06CC019C018C017C016C0B6C029
:10002000BDC0BEC0BFC0C1C0C2C0C4C0C6C0112414
:100030001FBECFEDCDBF10E0A0E6B0E001C01D9225
:10004000A436B107E1F783D0C1C0DACF8091600058
:10005000811106C0B4992AC01092610081E013C0DA
:10006000813051F480916100853000F1B4991EC057
:100070001092610082E007C0823041F4B49B16C048
:100080001092610083E08093600010C0833061F4BF
:1000900080916100853050F0B49B08C010926100DF
:1000A0001092600081E008951092600080E0089551
:1000B00019BE80E185BB80E28BBF85B7877E8061FA
:1000C00085BF85B7806285BF85B7982F94688B7F81
:1000D0008068F89495BF85BF78948895F89485B723
:1000E0008F7D85BF84E189BF1BBE789408951F92E0
:1000F0000F920FB60F9211240F900FBE0F901F900A
:1001000018951F920F920FB60F9211248F939F9301
:1001100080916200909163000196909363008093B8
:100120006200809161008F5F809361009F918F9149
:100130000F900FBE0F901F9018951F920F920FB641
:100140000F9211240F900FBE0F901F9018958EE202
:1001500087BB18BA14BA479A379882E08ABD83E001
:1001600083BF88E489BD12BE87EC80BF1CBC8DE7CD
:100170008DBD1FBC84E189BF7894C0E0EC2FF0E016
:10018000E15FFF4F88B3807F88BB099488B388BB49
:1001900080916000811114C08BDF12C0C19A10C021
:1001A000C29A0EC088B386600AC0C39A09C088B3D9
:1001B0008A6005C088B38C6002C088B38E6088BB3B
:1001C00045DF8823D9F2CF5FC770D8CFF894FFCF2F
:00000001FF
