:100000004DC065C06DC263C054C261C060C05FC0F6
:100010005EC05DC0ADC25BC05AC059C058C023C2EB
:1000200024C225C226C227C228C229C22AC22BC284
:100030002CC22DC22EC22FC230C231C2D9C2DFC2E1
:10004000E0C2E3C2E6C2E9C2ECC2F1C25EC25DC276
:100050005CC25BC25CC25BC25AC259C25AC259C2BC
:1000600058C257C258C257C256C255C256C255C2CC
:1000700054C253C266C268C26AC26CC25FC264C262
:1000800066C268C25BC25DC262C264C257C259C264
:100090005BC260C253C255C257C259C211241FBEAF
:1000A000CFEDCDBF10E0A0E6B0E0E4E9F6E002C09D
:1000B00005900D92A236B107D9F710E0A2E6B0E0A4
:1000C00001C01D92AB37B107E1F775D2E1C298CFFD
:1000D00080916200811106C0B5992AC01092630018
:1000E00081E013C0813051F480916300853000F1CC
:1000F000B5991EC01092630082E007C0823041F4BF
:10010000B59B16C01092630083E08093620010C01C
:10011000833061F480916300853050F0B59B08C056
:10012000109263001092620081E0089510926200C4
:1001300080E0089519BE80E285BB8BBF85B7877EBE
:10014000806185BF85B7806285BF85B7982F946829
:100150008B7F8068F89495BF85BF78948895F894D4
:1001600085B78F7D85BF84E189BF1BBE78940895D4
:1001700080E090E0FC01EA59FF4F10820196843143
:100180009105C1F70895F4DF1092650010926400A4
:10019000089580E090E021E0FC01EA59FF4F2083C0
:1001A000019684319105C1F71092650010926400A8
:1001B000089540916400509165009C01220F331F07
:1001C0004217530728F010926500109264000895BA
:1001D00020916400309165002817390760F080E0B5
:1001E00090E021E0FC01EA59FF4F20830196843121
:1001F0009105C1F7089580E090E0FC01EA59FF4FB6
:100200001082019684319105C1F7089580916000B4
:10021000909161009C013695279536952795AC0104
:10022000E3E056954795EA95E1F7242735272827F7
:100230003927AC01F5E056954795FA95E1F7242763
:100240003527332726953795222796958795282B8E
:10025000392B3093610020936000C9010895FF920B
:100260000F931F93CF93DF938B0120916400309104
:10027000650028173907C8F01092650010926400D5
:10028000C0E0D0E0FF24F394C1DF0817190748F459
:10029000FE01EA59FF4F8081813011F4108201C0C4
:1002A000F0822196C431D10579F7DF91CF911F916A
:1002B0000F91FF900895FF920F931F93CF93DF93B9
:1002C0008B0121E02093660020916400309165004D
:1002D00028173907C8F01092650010926400C1E039
:1002E000D0E0FF24F39492DF0817190748F4FE01C9
:1002F000EA59FF4F8081813011F4108201C0F082F1
:100300002196C431D10579F7DF91CF911F910F91DB
:10031000FF900895CF93DF93EC012ADF41E04093F3
:1003200066002091640030916500CE0163E070E0CA
:1003300089D12817390728F01092650010926400BF
:1003400031C02091640030916500CE01880F991F63
:100350002817390758F04093690040936C00409388
:100360006F0040937200409375001CC08091640040
:10037000909165008C179D0758F04093680040935A
:100380006B0040936E0040937100409374000AC06C
:100390004093670040936A0040936D004093700063
:1003A00040937300DF91CF910895CF93DF93EC01D9
:1003B000DFDE21E02093660080916400909165006B
:1003C000BE0152D162307105E9F038F46115710552
:1003D00039F16130710561F51CC06430710531F08F
:1003E00050F06530710521F52093750081E0809310
:1003F000740080936F0081E08093730080936E009F
:1004000080936A0081E08093720080936D008093F6
:10041000690081E08093710080936C008093680094
:1004200081E08093700080936B008093670004C02C
:100430001092650010926400DF91CF910895CF93E0
:10044000DF93EC0195DE81E080936600809164008B
:1004500090916500BE0108D16F30710518F5FB0160
:10046000E15FFF4F09941092750010927400109292
:10047000730010927200109271001092700010922E
:100480006F0010926E0010926D0010926C0010922E
:100490006B0010926A00109269001092680010922E
:1004A000670004C01092650010926400DF91CF9144
:1004B00008951F920F920FB60F9211248F939F935E
:1004C00080916400909165000196909365008093FF
:1004D00064009F918F910F900FBE0F901F90189501
:1004E0001F920F920FB60F9211240F900FBE0F9014
:1004F0001F90189517BA18BAE0917A00F0E0E4312D
:10050000F10560F4EA5DFF4F0994BA9A07C0BB9AFF
:1005100005C0BC9A03C0B99A01C0B89AE0917A00AC
:10052000AE2FB0E0AA59BF4F8C918130B1F4F0E00A
:10053000E431F10590F4E65CFF4F0994BA9A84E047
:100540000BC0BB9A88E008C0BC9A80E105C0B99A8C
:1005500082E002C0B89A81E088BB80917A008F5F08
:10056000843118F480937A00089510927A000895E7
:100570001F920F920FB60F9211242F933F934F9318
:100580005F936F937F938F939F93AF93BF93EF93FB
:10059000FF93B0DFFF91EF91BF91AF919F918F914A
:1005A0007F916F915F914F913F912F910F900FBE6F
:1005B0000F901F9018958FE187BB18BA14BA479A0D
:1005C000379882E08ABD83E083BF88E489BD12BE8C
:1005D00087EC80BF1CBC8DE78DBD1FBC84E189BF4B
:1005E0007894C6DDC4E0EC2FF0E0E25EFF4F0994A2
:1005F000CADD8091620081111FC09CDD1DC0C9DD74
:100600001BC084EF91E0D5DD17C084EF91E082DE5E
:1006100013C084EF91E0C9DE0FC084EF91E00FDFDB
:100620000BC060E47CE984EF91E019DE05C060E472
:100630007CE984EF91E03FDE4BDD8823A1F2CF5FC0
:10064000C770D1CF5527002480FF02C0060E571F68
:10065000660F771F6115710521F0969587950097B4
:1006600099F7952F802D0895AA1BBB1B51E107C058
:10067000AA1FBB1FA617B70710F0A61BB70B881F32
:10068000991F5A95A9F780959095BC01CD010895C1
:04069000F894FFCF0C
:0206940034121E
:00000001FF
