:100000004AC062C0B1C060C083C05EC05DC05CC099
:100010005BC05AC05AC058C057C056C055C0F4C083
:10002000F3C0F2C0F1C0F2C0F1C0F0C0EFC0F0C048
:10003000EFC0EEC0EDC0EEC0EDC0ECC0EBC0ECC058
:10004000EBC0EAC0E9C0FCC0FEC000C102C1F5C0FF
:10005000FAC0FCC0FEC0F1C0F3C0F8C0FAC0EDC0E9
:10006000EFC0F1C0F6C0E9C0EBC0EDC0EFC0D8C230
:10007000D0C2C8C2C0C2B8C2B0C2A8C2A7C2A6C2BB
:10008000A5C2A4C2A3C2E0C2E7C2E7C2E9C2EBC2F2
:10009000EDC2EFC2F1C211241FBECFEDCDBF10E003
:1000A000A0E6B0E0E8E3F7E002C005900D92A236CA
:1000B000B107D9F710E0A2E6B0E001C01D92AB375E
:1000C000B107E1F7DFD236C39BCF1F920F920FB675
:1000D0000F9211242F933F934F935F936F937F93CE
:1000E0008F939F93AF93BF93EF93FF9382D0FF9132
:1000F000EF91BF91AF919F918F917F916F915F91A0
:100100004F913F912F910F900FBE0F901F90189518
:100110001F920F920FB60F9211242F933F934F937C
:100120005F936F937F938F939F93AF93BF93EF935F
:10013000FF93809164009091650001969093650013
:10014000809364004DD0FF91EF91BF91AF919F914B
:100150008F917F916F915F914F913F912F910F9070
:100160000FBE0F901F9018951F920F920FB60F920F
:1001700011240F900FBE0F901F9018958091620070
:10018000811106C0B5992AC01092630081E013C0A6
:10019000813051F480916300853000F1B5991EC023
:1001A0001092630082E007C0823041F4B59B16C014
:1001B0001092630083E08093620010C0833061F48A
:1001C00080916300853050F0B59B08C010926300A9
:1001D0001092620081E008951092620080E008951C
:1001E000809163008F5F8093630008958091620027
:1001F000089517BA18BAE0917A00F0E0E431F105F9
:1002000060F4E15FFF4F0994BA9A07C0BB9A05C03A
:10021000BC9A03C0B99A01C0B89AE0917A00AE2F97
:10022000B0E0AA59BF4F8C918130B1F4F0E0E431D5
:10023000F10590F4ED5DFF4F0994BA9A84E00BC08C
:10024000BB9A88E008C0BC9A80E105C0B99A82E0F8
:1002500002C0B89A81E088BB80917A008F5F8431B8
:1002600018F480937A00089510927A00089519BEC8
:1002700080E285BB8BBF85B7877E806185BF85B7F0
:10028000806285BF85B7982F94688B7F8068F894CB
:1002900095BF85BF78948895F89485B78F7D85BF85
:1002A00084E189BF1BBE7894089520E030E0F90115
:1002B000EA59FF4F80832F5F3F4F24313105B9F753
:1002C0000895F89480E0F1DF1092650010926400C8
:1002D00078940895F89481E0E8DF10926500109218
:1002E000640078940895F8944091640050916500FA
:1002F0009C01220F331F4217530728F0109265000C
:10030000109264000BC020916400309165002817A2
:10031000390710F081E001C080E0C7DF78940895CC
:1003200080916000909161009C01369527953695EB
:100330002795AC01E3E056954795EA95E1F7242728
:10034000352728273927AC01F5E056954795FA95CA
:10035000E1F72427352733272695379522279695C9
:100360008795282B392B3093610020936000C901B9
:100370000895FF920F931F93CF93DF938B01F8940F
:1003800020916400309165002817390710F47894A3
:100390001AC01092650010926400C0E0D0E0FF2403
:1003A000F394BEDF0817190748F4FE01EA59FF4F1E
:1003B0008081813011F4108201C0F0822196C43115
:1003C000D10579F7E4CFDF91CF911F910F91FF9085
:1003D0000895CF93DF93EC01F89480E066DF2091DD
:1003E000640030916500CE01880F991F28173907E6
:1003F00028F0109265001092640030C08091640073
:10040000909165008C179D0780F081E080936700D4
:1004100080936A0080936D008093700080937300D6
:10042000809376008093780019C081E08093660005
:10043000809368008093690080936B0080936C00C8
:1004400080936E0080936F008093710080937200A0
:100450008093740080937500809377007894DF9187
:10046000CF910895CF93DF93EC01F89480E01DDFE6
:100470008091640090916500BE0148D162307105A1
:10048000C1F038F46115710571F16130710579F5CC
:100490001DC06830710558F581E080936600809337
:1004A000690080936C0080936F008093720080934A
:1004B000750081E08093670080936A0080936D00EF
:1004C00080937000809373008093760081E0809326
:1004D000680080936B0080936E008093710080931E
:1004E00074008093770081E08093780004C01092BC
:1004F0006500109264007894DF91CF910895CF93B6
:10050000DF93EC01F89480E0D0DE41E04093780086
:100510002091640030916500CE0163E070E0E4D08A
:100520002817390728F0109265001092640037C030
:100530002091640030916500CE01880F991F281723
:10054000390768F040936C0040936D0040936E0053
:1005500040937500409376004093770020C08091CF
:100560006400909165008C179D0768F040936900C6
:1005700040936A0040936B00409372004093730075
:10058000409374000CC04093660040936700409312
:10059000680040936F00409370004093710078941E
:1005A000DF91CF910895CF93DF93EC01F89480E031
:1005B0007CDE8091640090916500BE01A7D06C3014
:1005C000710590F5FB01E95CFF4F099481E0809390
:1005D0007500809376008093770081E080937200AD
:1005E000809373008093740081E080936F00809308
:1005F00070008093710081E080936C0080936D00A7
:1006000080936E0081E08093690080936A008093FC
:100610006B0081E0809366008093670080936800A0
:1006200081E08093780004C010926500109264000D
:100630007894DF91CF910895E82FF0E0E830F1054C
:1006400000F5ED5BFF4F09943CDE88B3807E88BBEC
:10065000CDDD811116C00BCE3DCE8EEE92E043CEA5
:100660008EEE92E0B6CE84EF91E0FCCE84EF91E086
:100670009ACF84EF91E043CF60E47CE984EF91E08E
:1006800078CE08958FE187BB18BA14BA479A379885
:1006900082E08ABD83E083BF88E489BD12BE87EC17
:1006A00080BF1CBC8DE78DBD1FBC84E189BF7894E1
:1006B00080E0FBDDC0E0D0E011E0209164003091EB
:1006C0006500C217D307C9F3812FB6DFC09164005C
:1006D000D091650053DD882381F31F5F177010925E
:1006E000650010926400E9CF5527002480FF02C006
:1006F000060E571F660F771F6115710521F096953D
:100700008795009799F7952F802D0895AA1BBB1BFD
:1007100051E107C0AA1FBB1FA617B70710F0A61B01
:10072000B70B881F991F5A95A9F780959095BC0122
:08073000CD010895F894FFCFFC
:02073800341279
:00000001FF
