:1000000036C043C042C041C041C03FC03EC03DC0F9
:100010003CC03BC092C039C038C037C036C058C0A1
:1000200057C056C055C056C055C054C053C054C028
:1000300053C052C051C052C051C050C04FC050C038
:100040004FC04EC04DC061C063C065C067C05AC0DC
:100050005FC061C063C056C058C05DC05FC052C0C1
:1000600054C056C05BC04EC050C052C054C01124D2
:100070001FBECFEDCDBF10E0A0E6B0E001C01D92E5
:10008000A737B107E1F77CD0C5C0BACF1F920F9256
:100090000FB60F9211248F939F93809161009091DE
:1000A0006200019690936200809361009F918F910E
:1000B0000F900FBE0F901F90189517BA18BAE091C5
:1000C0006000F0E0E431F10560F4E15FFF4F099476
:1000D000BA9A07C0BB9A05C0BC9A03C0B99A01C0BE
:1000E000B89AE0916000F0E0ED59FF4F80818130D7
:1000F000C1F4E0916000F0E0E431F10590F4ED5DD1
:10010000FF4F0994BA9A84E00BC0BB9A88E008C0FC
:10011000BC9A80E105C0B99A82E002C0B89A81E039
:1001200088BB809160008F5F809360008091600049
:10013000843110F01092600008951F920F920FB654
:100140000F9211242F933F934F935F936F937F935D
:100150008F939F93AF93BF93EF93FF93AEDFFF9186
:10016000EF91BF91AF919F918F917F916F915F912F
:100170004F913F912F910F900FBE0F901F901895A8
:100180008FE387BB18BA82E08ABD83E083BF88E42F
:1001900089BD12BE87EC80BF1CBC8DE78DBD1FBC26
:1001A00084E189BF789480E090E0FC01ED59FF4F35
:1001B0001082019684319105C1F720E041E011C021
:1001C000E22FF0E0ED59FF4F408310926200109251
:1001D00061008091610090916200883E9340C8F375
:1001E0002F5F243168F380E090E0FC01ED59FF4F70
:1001F0001082109262001092610020916100309193
:100200006200283E3340C8F301968431910569F7B6
:0802100020E0D6CFF894FFCFE7
:00000001FF
