:1000000036C043C042C041C041C03FC03EC03DC0F9
:100010003CC03BC090C039C038C037C036C058C0A3
:1000200057C056C055C056C055C054C053C054C028
:1000300053C052C051C052C051C050C04FC050C038
:100040004FC04EC04DC060C062C064C066C059C0E1
:100050005EC060C062C055C057C05CC05EC051C0C9
:1000600053C055C05AC04DC04FC051C053C01124D9
:100070001FBECFEDCDBF10E0A0E6B0E001C01D92E5
:10008000A737B107E1F77AD0C5C0BACF1F920F9258
:100090000FB60F9211248F939F93809160009091DF
:1000A0006100019690936100809360009F918F9111
:1000B0000F900FBE0F901F90189517BA18BAE091C5
:1000C0006200F0E0E431F10560F4E15FFF4F099474
:1000D000BA9A07C0BB9A05C0BC9A03C0B99A01C0BE
:1000E000B89AE0916200AE2FB0E0AD59BF4F8C914D
:1000F0008130B1F4F0E0E431F10590F4ED5DFF4FB3
:100100000994BA9A84E00BC0BB9A88E008C0BC9AF4
:1001100080E105C0B99A82E002C0B89A81E088BB4C
:10012000809162008F5F843118F48093620008959B
:100130001092620008951F920F920FB60F92112431
:100140002F933F934F935F936F937F938F939F93DF
:10015000AF93BF93EF93FF93B0DFFF91EF91BF9108
:10016000AF919F918F917F916F915F914F913F914F
:100170002F910F900FBE0F901F9018958FE387BBA4
:1001800018BA82E08ABD83E083BF88E489BD12BECD
:1001900087EC80BF1CBC8DE78DBD1FBC84E189BF8F
:1001A000789480E090E0FC01ED59FF4F10820196B9
:1001B00084319105C1F720E041E012C0E22FF0E068
:1001C000ED59FF4F408310926100109260001FBCF8
:1001D0008091600090916100883E9340C8F32F5F4A
:1001E000243160F380E090E0FC01ED59FF4F108274
:1001F00010926100109260001FBC2091600030914D
:100200006100283E3340C8F301968431910561F7BF
:0802100020E0D4CFF894FFCFE9
:00000001FF
